:100000000C945E000C9486000C9486000C94860080
:100010000C9486000C9486000C9486000C94860048
:100020000C9486000C9486000C9486000C94860038
:100030000C9486000C9486000C9486000C94860028
:100040000C949C050C9486000C940C060C94E6050C
:100050000C9486000C9486000C9486000C94860008
:100060000C9486000C948600000000080002010039
:100070000003040700000000000000000000000072
:10008000250028002B0000000000240027002A0083
:10009000040404040404040402020202020203032E
:1000A0000303030301020408102040800102040836
:1000B00010200102040810203E06BF0911241FBEB3
:1000C000CFEFD8E0DEBFCDBF25E0A8E1B5E001C0AD
:1000D0001D92AA3CB207E1F715E0A0E0B1E0EEE125
:1000E000FDE102C005900D92A831B107D9F710E0EB
:1000F000CDE5D0E004C02197FE010E945A0BCC351B
:10010000D107C9F70E94B6060C94820E0C94000029
:1001100090E0FC01EC55FF4F249180579F4FFC016C
:100120008491882399F090E0880F991FFC01EA5789
:10013000FF4FA591B491FC01E458FF4F8591949134
:100140008FB7F894EC91E22BEC938FBF089590E079
:10015000FC01E859FF4F2491FC01EC55FF4F34910D
:10016000FC01E057FF4FE491EE23C9F0222339F060
:10017000233001F1A8F4213019F1223029F1F0E007
:10018000EE0FFF1FE458FF4FA591B4918FB7F8947D
:10019000EC91611126C030953E233C938FBF0895AA
:1001A0002730A9F02830C9F0243049F78091800029
:1001B0008F7D03C0809180008F7780938000DFCF98
:1001C00084B58F7784BDDBCF84B58F7DFBCF8091E5
:1001D000B0008F778093B000D2CF8091B0008F7D38
:1001E000F9CF3E2BDACF1F93CF93DF93182FEB017C
:1001F0000E948800209739F460E0812FDF91CF9131
:100200001F910C94A700CF3FD10511F461E0F5CF09
:10021000E12FF0E0E859FF4FE491E33031F140F491
:10022000E130B1F0E230E1F0C038D1057CF7E4CF45
:10023000E73029F1E83059F1E430B1F780918000DE
:10024000806280938000D0938B00C0938A0004C0AA
:1002500084B5806884BDC7BDDF91CF911F9108959B
:1002600084B5806284BDC8BDF7CF8091800080686E
:1002700080938000D0938900C0938800EDCF809157
:10028000B00080688093B000C093B300E5CF809148
:10029000B00080628093B000C093B400DDCF3FB760
:1002A000F89480911B0590911C05A0911D05B091BB
:1002B0001E0526B5A89B05C02F3F19F00196A11D6C
:1002C000B11D3FBFBA2FA92F982F8827BC01CD01A0
:1002D000620F711D811D911D42E0660F771F881FFF
:1002E000991F4A95D1F708958F929F92AF92BF922E
:1002F000CF92DF92EF92FF924B015C010E944F017F
:100300006B017C010E944F016C197D098E099F09C8
:10031000683E734081059105A8F321E0821A910897
:10032000A108B10888EEC80E83E0D81EE11CF11CBC
:1003300081149104A104B10429F7FF90EF90DF909C
:10034000CF90BF90AF909F908F900895AF92BF9243
:10035000CF92DF92EF92FF920F931F93CF93DF9391
:100360006C017B018B01040F151FEB015E01AE18C0
:10037000BF08C017D10759F06991D601ED91FC91E2
:100380000190F081E02DC6010995892B79F7C5010F
:10039000DF91CF911F910F91FF90EF90DF90CF9061
:1003A000BF90AF900895FC01538D448D252F30E010
:1003B000842F90E0821B930B541710F0CF96089572
:1003C00001970895FC01918D828D981761F0A28D9F
:1003D000AE0FBF2FB11D5D968C91928D9F5F9F7365
:1003E000928F90E008958FEF9FEF08952FB7F894C4
:1003F00080911F0590912005A0912105B0912205C3
:100400002FBF80932B0590932C05A0932D05B093BF
:100410002E0583E295E00E94E20197FF26C02FB7E8
:10042000F89480911F0590912005A0912105B0912D
:1004300022052FBF40912B0550912C0560912D0571
:1004400070912E05841B950BA60BB70B40912705C9
:10045000509128056091290570912A058417950708
:10046000A607B707B0F28FEF9FEF0895FC01918DBB
:10047000828D981731F0828DE80FF11D858D90E007
:1004800008958FEF9FEF08952FB7F89480911F057F
:1004900090912005A0912105B09122052FBF809356
:1004A0002B0590932C05A0932D05B0932E0583E288
:1004B00095E00E94360297FF26C02FB7F8948091EE
:1004C0001F0590912005A0912105B09122052FBF15
:1004D00040912B0550912C0560912D0570912E05B2
:1004E000841B950BA60BB70B40912705509128054F
:1004F0006091290570912A0584179507A607B7070B
:10050000B0F28FEF9FEF0895CF92DF92EF92FF92BC
:10051000CF930E944402FC0197FD4EC08D3291059D
:1005200021F0C0970A9708F040C0C12CD12C760169
:10053000C0E0E130F105D1F0ED32F105D9F1CF01A4
:10054000C0970A9798F4AAE0B0E0A70196010E942C
:10055000E70A6F01FF0FEE08FF08C60ED71EE81E60
:10056000F91E80E3C81AD108E108F10883E295E09A
:100570000E94E2010E944402FC01C0970A97C8F25F
:10058000E130F105B1F2CC2341F0F094E094D09445
:10059000C094C11CD11CE11CF11CC701B601CF9154
:1005A000FF90EF90DF90CF90089583E295E00E9456
:1005B000E201AFCFC1E0DACFC12CD12C7601EDCF73
:1005C000FC01918D228D892F90E0805C9F4F821BD2
:1005D00091098F739927089583E295E00E94E002C4
:1005E00021E0892B09F420E0822F089580E090E03B
:1005F000892B29F00E94EC0281110C9400000895CF
:10060000FC01A48DA80FB92FB11DA35ABF4F2C9187
:10061000848D90E001968F739927848FA689B7897E
:100620002C93A089B1898C91837080648C93938D75
:10063000848D981306C00288F389E02D80818F7D18
:1006400080830895EF92FF920F931F93CF93DF93D0
:10065000EC0181E0888F9B8D8C8D98131AC0E889FE
:10066000F989808185FF15C09FB7F894EE89FF89CD
:100670006083E889F98980818370806480839FBF6B
:1006800081E090E0DF91CF911F910F91FF90EF906B
:100690000895F62E0B8D10E00F5F1F4F0F7311277B
:1006A000E02E8C8D8E110CC00FB607FCFACFE889B6
:1006B000F989808185FFF5CFCE010E940003F1CF3B
:1006C000EB8DEC0FFD2FF11DE35AFF4FF0829FB72A
:1006D000F8940B8FEA89FB8980818062CFCFCF931A
:1006E000DF93EC01888D8823B9F0AA89BB89E8895A
:1006F000F9898C9185FD03C0808186FD0DC00FB600
:1007000007FCF7CF8C9185FFF2CF808185FFEDCF7D
:10071000CE010E940003E9CFDF91CF910895FC0143
:1007200001900020E9F73197AF01481B590BBC013C
:1007300083E295E00C94A60189E191E00C948F038B
:10074000CF93DF93FC01448155816081718183E205
:1007500095E00E94A601EC010E949C038C0F9D1F56
:10076000DF91CF9108958F929F92AF92BF920F9396
:100770001F93CF93DF93CDB7DEB7A1970FB6F89451
:10078000DEBF0FBECDBF19A2423008F44AE08E0191
:100790000F5D1F4F842E912CB12CA12CA50194012B
:1007A0000E94380BE62FB901CA01EA30F4F4E05D8B
:1007B000D801EE938D01232B242B252B79F790E084
:1007C00080E0109719F0CD010E948F03A1960FB61B
:1007D000F894DEBF0FBECDBFDF91CF911F910F9177
:1007E000BF90AF909F908F900895E95CE1CF0C94FB
:1007F0008F03CF93DF930E948F03EC010E949C0331
:100800008C0F9D1FDF91CF910895FC018081918114
:10081000009711F00C94140D0895CF92DF92EF928F
:10082000FF92CF93DF936C01990FEE08FF08F7FE5C
:100830001DC06DE283E295E00E942203EC01662771
:100840007727CB016C197D098E099F094AE00E9428
:10085000B303C80FD91F0E949C038C0F9D1FDF910B
:10086000CF91FF90EF90DF90CF9008954AE0C701BD
:10087000B6010E94B303EC01EECF4F925F926F92EC
:100880007F928F929F92AF92BF92CF92DF92EF9220
:10089000FF920F931F93CF936B017C01742EAC01D9
:1008A0009B010E94730C882399F08CE191E0CF9119
:1008B0001F910F91FF90EF90DF90CF90BF90AF907E
:1008C0009F908F907F906F905F904F900C948F03CC
:1008D00046015701E894B7F82FEF3FEF4FE75FE786
:1008E000C501B4010E94730C81110DC02FEF3FEFC1
:1008F0004FE75FE7C501B4010E94C30918161CF455
:1009000080E291E0D4CF2FEF3FEF4FE75FE4C701E4
:10091000B6010E946E0C18161CF484E291E0C7CF59
:100920002FEF3FEF4FE75FECC701B6010E94C3090D
:1009300087FDF3CF20E030E0A901C701B6010E9496
:10094000C30910E000E087FF0AC06DE283E295E092
:100950000E9422038C01F7FAF094F7F8F094C0E0BB
:1009600060E070E080E09FE37C1641F020E030E042
:1009700040E251E40E94CD0BCF5FF6CFA701960174
:100980000E94610B2B013C010E943F0C4B015C015A
:100990004AE00E94B3037C01E00EF11ECC23C1F1BA
:1009A000C501B4010E94C8099B01AC01C301B20199
:1009B0000E94600B4B015C016EE283E295E00E94B5
:1009C0002203E80EF91EC15018F120E030E040E2A9
:1009D00051E4C501B4010E94290A2B013C010E9487
:1009E0003F0C4B01B12CA12C4AE0C501B4010E947F
:1009F000B303E80EF91EC501B4010E94C8099B01AA
:100A0000AC01C301B2010E94600B4B015C01DBCF62
:100A1000C701CF911F910F91FF90EF90DF90CF9082
:100A2000BF90AF909F908F907F906F905F904F900E
:100A300008950F931F93CF93DF93EC0188819981E1
:100A4000009759F02A813B812617370730F081E063
:100A5000DF91CF911F910F9108958B016F5F7F4FB1
:100A60000E949D0D009759F0998388831B830A8308
:100A70002C813D81232B59F7FC011082E8CF80E0C7
:100A8000E7CFEF92FF920F931F93CF93DF9300D0A6
:100A9000CDB7DEB78C01FC01118210821382128265
:100AA0001582148270E060E00E941905F80120812F
:100AB000318181112FC02115310519F0C9010E9422
:100AC000140DF80111821082158214821382128291
:100AD0000E94F60197FD26C089831A82F801E480FE
:100AE000F580FFEFEF1AFF0AB701C8010E94190550
:100AF000882371F3F8012081318184819581BE01C1
:100B00006F5F7F4F820F931F0E946C0EF801F5827A
:100B1000E482DECF158214826BE171E0C9010E948C
:100B20006C0ED6CFC8010F900F90DF91CF911F911F
:100B30000F91FF90EF9008951F920F920FB60F92B2
:100B400011242F933F938F939F93AF93BF938091E3
:100B50001F0590912005A0912105B09122053091AB
:100B60001A0523E0230F2D3758F50196A11DB11D5D
:100B700020931A0580931F0590932005A0932105CB
:100B8000B093220580911B0590911C05A0911D0535
:100B9000B0911E050196A11DB11D80931B05909378
:100BA0001C05A0931D05B0931E05BF91AF919F91A9
:100BB0008F913F912F910F900FBE0F901F9018951E
:100BC00026E8230F0296A11DB11DD2CF1F920F92CE
:100BD0000FB60F9211242F933F934F935F936F9310
:100BE0007F938F939F93AF93BF93EF93FF9383E292
:100BF00095E00E940003FF91EF91BF91AF919F910B
:100C00008F917F916F915F914F913F912F910F90B5
:100C10000FBE0F901F9018951F920F920FB60F9254
:100C200011242F938F939F93EF93FF93E0913305BC
:100C3000F09134058081E0913905F0913A0582FD0B
:100C40001BC0908180913C058F5F8F7320913D0583
:100C5000821741F0E0913C05F0E0ED5DFA4F958F91
:100C600080933C05FF91EF919F918F912F910F9071
:100C70000FBE0F901F9018958081F4CF109226051B
:100C80001092250588EE93E0A0E0B0E08093270560
:100C900090932805A0932905B0932A058BE091E055
:100CA000909324058093230585EC90E09093300584
:100CB00080932F0584EC90E090933205809331056A
:100CC00080EC90E0909334058093330581EC90E0C4
:100CD000909336058093350582EC90E0909338052B
:100CE0008093370586EC90E090933A058093390520
:100CF00010923C0510923D0510923E0510923F0562
:100D00001092C1051092C0051092C3051092C20541
:100D10001092C5051092C4056AE070E080EC95E081
:100D20000E9419052091C0053091C105811113C0A1
:100D30002115310519F0C9010E94140D1092C10549
:100D40001092C0051092C5051092C4051092C305FB
:100D50001092C20508958AE090E09093C5058093B3
:100D6000C40568E271E0C9010C946C0ECF93DF9367
:100D7000CDB7DEB768970FB6F894DEBF0FBECDBF14
:100D8000789484B5826084BD84B5816084BD85B566
:100D9000826085BD85B5816085BD80916E00816072
:100DA00080936E0010928100809181008260809318
:100DB000810080918100816080938100809180001A
:100DC0008160809380008091B10084608093B10045
:100DD0008091B00081608093B00080917A0084603F
:100DE00080937A0080917A00826080937A0080916B
:100DF0007A00816080937A0080917A008068809385
:100E00007A001092C100E0913305F091340582E040
:100E10008083E0912F05F09130051082E09131053B
:100E2000F09132058FEC808310923B05E0913705FD
:100E3000F091380586E08083E0913505F091360524
:100E4000808180618083E0913505F0913605808155
:100E500088608083E0913505F09136058081806857
:100E60008083E0913505F091360580818F7D808308
:100E70008BE00E9488008CE00E9488008FEF8AB986
:100E800010910001112399F183E391E00E94F9038D
:100E900087E591E00E94F90381E891E00E94F9035F
:100EA00081ED91E00E94F90382E192E00E94F90352
:100EB00080E592E00E94F9038AE992E00E94F9033A
:100EC0001092000183E295E00E94E002892BD1F3A9
:100ED0000E9484026330710509F4E0C09CF4613023
:100EE000710509F440C06230710509F471C020E059
:100EF00030E0232B29F20E94EC02882309F20E94A1
:100F00000000BECF6530710509F4AAC10CF454C1CC
:100F10006630710561F783E295E00E94E002892B5B
:100F2000D1F3CE0101960E9441052D813E81809131
:100F3000C4059091C5052817390709F0FCC18981BE
:100F40009A816091C0057091C105009709F4E5C1CF
:100F50006115710509F00BC2232B09F4EDC1FC01E9
:100F6000808190E0E5C18DEC92E00E94F70383E27E
:100F700095E00E94E002892BD1F30E9484022B01AC
:100F8000CB010E940D0488EE92E00E94F70383E2F9
:100F900095E00E94E002892BD1F30E9484026B014C
:100FA000CB010E940D04C40CD51C84E093E00E9488
:100FB000F703C6010E940D0421E0209300010E9466
:100FC0009C0368EE73E080E090E00E9474018FCF94
:100FD00081E293E00E94F9038BE593E00E94F7031E
:100FE00083E295E00E94E002892BD1F3CE01439683
:100FF0000E944105CE0143960E94A00384E693E03F
:101000000E94F70383E295E00E94E002892BD1F36E
:10101000CE010D960E944105CE010D960E94A003BF
:101020008FE693E00E94F70383E295E00E94E002DE
:10103000892BD1F3CE0107960E944105CE01079678
:101040000E94A0038BE793E00E94F70383E295E000
:101050000E94E002892BD1F3CE0101960E94410546
:10106000CE0101960E94A00385E893E00E94F90357
:101070000E949C03CE0101960E940504CE010796B2
:101080000E940504CE010D960E940504CE014396F0
:101090000E94050431E03093000129CF2DB63EB601
:1010A0000E949C0385E993E00E94F70383E295E0A8
:1010B0000E94E002892BD1F30E9484022B016B0174
:1010C000CB01880F991F880F991FEDB7FEB7E81B5A
:1010D000F90B0FB6F894FEBF0FBEEDBF0DB71EB7EC
:1010E0000F5F1F4FC2010E940D0483E295E00E9432
:1010F0006F035801F12CE12CEC14FD040CF58CEC81
:1011000093E00E94F70383E295E00E94E002892BBE
:10111000D1F30E9484020E94CA09F5016193719380
:10112000819391935F0142E00E943D040E949C03E1
:1011300083E295E00E946F03FFEFEF1AFF0ADCCF16
:10114000F12CE12C812C912C5401EC14FD0484F43D
:10115000F80121913191419151918F01C501B40163
:101160000E94610B4B015C01FFEFEF1AFF0AEDCF0C
:10117000B201550C880B990B0E94CA099B01AC0166
:10118000C501B4010E94CD0B6B017C010E949C0340
:1011900080EE93E00E94F70342E0C701B6010E948F
:1011A0003D040E949C030FB6F8943EBE0FBE2DBEB8
:1011B00021E0209300019BCE0E949C0388E094E0F4
:1011C0000E94F70383E295E00E94E002892BD1F3AD
:1011D0000E9484027093190560931805CB010E9448
:1011E0000D0460911805709119056F337105A8F40D
:1011F0008BE00E94F30086E794E00E94F90383E20B
:1012000095E00E94E002892BD1F383E295E00E94F1
:10121000E2018337910581F23DCFCB0180549109E2
:101220000C9730F3CB018D549109C29708F3CB0191
:1012300080589109C297E0F2CB01835B91090C972A
:10124000B8F2CB01805C9109859790F2CB01865E64
:1012500091094A9768F286E594E00E94F903CBCFA2
:10126000CDB6DEB61BB885E994E00E94F90383E2AF
:1012700095E00E94E002892BD1F3CE0101960E94F5
:10128000410588EE94E00E94F703CE0101960E948A
:10129000A003ED80FE80C7010196EDB7FEB7E81B05
:1012A000F90B0FB6F894FEBF0FBEEDBF0DB71EB71A
:1012B0000F5F1F4F892B71F0F801E114F10449F021
:1012C00069817A81A701C8010E94730EF801EE0DB1
:1012D000FF1D1082B12CA12CAE14BF04A4F4F801A0
:1012E00081918F016FEF813309F060E08A2D0E94B8
:1012F000A70064E670E080E090E00E947401FFEFD8
:10130000AF1ABF0AE9CFCE0101960E9405040FB6BD
:10131000F894DEBE0FBECDBE4BCF6115710561F0F6
:10132000232B51F0FB01808190E0919581959109EB
:1013300011E0892B09F010E0CE0101960E9405040E
:101340001123C1F061E08CE00E94A70060ED77E01E
:1013500080E090E00E94740160E08CE00E94A700B1
:1013600064EF71E080E090E00E94740193CE0E94EF
:10137000630EDECF86E095E00E94F9038BCE80EC11
:1013800095E00C9405040E94050A08F481E0089594
:10139000E89409C097FB3EF490958095709561950F
:1013A0007F4F8F4F9F4F9923A9F0F92F96E9BB27C5
:1013B0009395F695879577956795B795F111F8CF41
:1013C000FAF4BB0F11F460FF1BC06F5F7F4F8F4FAC
:1013D0009F4F16C0882311F096E911C0772321F0A2
:1013E0009EE8872F762F05C0662371F096E8862F3A
:1013F00070E060E02AF09A95660F771F881FDAF791
:10140000880F9695879597F90895990F0008550FBD
:10141000AA0BE0E8FEEF16161706E807F907C0F07A
:1014200012161306E407F50798F0621B730B840B82
:10143000950B39F40A2661F0232B242B252B21F45C
:1014400008950A2609F4A140A6958FEF811D811DFC
:1014500008950E943C0A0C94AD0A0E949F0A38F03D
:101460000E94A60A20F0952311F00C94960A0C9481
:101470009C0A11240C94E10A0E94BE0A70F3959F05
:10148000C1F3950F50E0551F629FF001729FBB277B
:10149000F00DB11D639FAA27F00DB11DAA1F649F17
:1014A0006627B00DA11D661F829F2227B00DA11DCA
:1014B000621F739FB00DA11D621F839FA00D611D50
:1014C000221F749F3327A00D611D231F849F600D71
:1014D000211D822F762F6A2F11249F5750409AF09A
:1014E000F1F088234AF0EE0FFF1FBB1F661F771F26
:1014F000881F91505040A9F79E3F510580F00C94F1
:10150000960A0C94E10A5F3FE4F3983ED4F3869583
:1015100077956795B795F795E7959F5FC1F7FE2B90
:10152000880F911D9695879597F9089597F99F676C
:1015300080E870E060E008959FEF80EC089500245B
:101540000A941616170618060906089500240A9428
:1015500012161306140605060895092E0394000CAE
:1015600011F4882352F0BB0F40F4BF2B11F460FF3D
:1015700004C06F5F7F4F8F4F9F4F089557FD905866
:10158000440F551F59F05F3F71F04795880F97FB47
:10159000991F61F09F3F79F0879508951216130601
:1015A0001406551FF2CF4695F1DF08C01616170630
:1015B0001806991FF1CF8695710561050894089565
:1015C000E894BB2766277727CB0197F908950E94F7
:1015D000290BA59F900DB49F900DA49F800D911D88
:1015E000112408952F923F924F925F926F927F92B3
:1015F0008F929F92AF92BF92CF92DF92EF92FF9223
:101600000F931F93CF93DF93CDB7DEB7CA1BDB0BCE
:101610000FB6F894DEBF0FBECDBF09942A88398873
:1016200048885F846E847D848C849B84AA84B9847A
:10163000C884DF80EE80FD800C811B81AA81B98186
:10164000CE0FD11D0FB6F894DEBF0FBECDBFED019A
:101650000895A29FB001B39FC001A39F700D811D8B
:101660001124911DB29F700D811D1124911D0895AB
:10167000A1E21A2EAA1BBB1BFD010DC0AA1FBB1F96
:10168000EE1FFF1FA217B307E407F50720F0A21B08
:10169000B30BE40BF50B661F771F881F991F1A9475
:1016A00069F760957095809590959B01AC01BD019F
:1016B000CF010895EE0FFF1F0590F491E02D0994DE
:1016C0005058BB27AA270E94780B0C94AD0A0E94A1
:1016D0009F0A38F00E94A60A20F039F49F3F19F4BF
:1016E00026F40C949C0A0EF4E095E7FB0C94960A01
:1016F000E92F0E94BE0A58F3BA17620773078407DE
:10170000950720F079F4A6F50C94E00A0EF4E09524
:101710000B2EBA2FA02D0B01B90190010C01CA01AB
:10172000A0011124FF27591B99F0593F50F4503E56
:1017300068F11A16F040A22F232F342F4427585F48
:10174000F3CF469537952795A795F0405395C9F760
:101750007EF41F16BA0B620B730B840BBAF0915018
:10176000A1F0FF0FBB1F661F771F881FC2F70EC0B7
:10177000BA0F621F731F841F48F48795779567958A
:10178000B795F7959E3F08F0B0CF9395880F08F076
:101790009927EE0F9795879508950E94E10B0C9479
:1017A000AD0A0E94A60A58F00E949F0A40F029F450
:1017B0005F3F29F00C94960A51110C94E10A0C94A5
:1017C0009C0A0E94BE0A68F39923B1F3552391F352
:1017D000951B550BBB27AA2762177307840738F0A0
:1017E0009F5F5F4F220F331F441FAA1FA9F335D0FD
:1017F0000E2E3AF0E0E832D091505040E695001CB1
:10180000CAF72BD0FE2F29D0660F771F881FBB1F6A
:10181000261737074807AB07B0E809F0BB0B802D48
:10182000BF01FF2793585F4F3AF09E3F510578F074
:101830000C94960A0C94E10A5F3FE4F3983ED4F3CB
:10184000869577956795B795F7959F5FC9F7880F48
:10185000911D9695879597F90895E1E0660F771F9A
:10186000881FBB1F621773078407BA0720F0621B2B
:10187000730B840BBA0BEE1F88F7E09508950E9456
:10188000C60A88F09F5798F0B92F9927B751B0F042
:10189000E1F0660F771F881F991F1AF0BA95C9F7F4
:1018A00014C0B13091F00E94E00AB1E008950C94A8
:1018B000E00A672F782F8827B85F39F0B93FCCF35B
:1018C000869577956795B395D9F73EF49095809571
:1018D000709561957F4F8F4F9F4F08950E94050A25
:1018E00008F48FEF08950E94050A880B990B08955C
:1018F0000F931F93CF93DF938230910510F482E012
:1019000090E0E091C805F091C90530E020E0B0E03A
:10191000A0E0309799F42115310509F44AC0281B3D
:10192000390B24303105D8F58A819B816115710509
:1019300089F1FB0193838283FE0111C040815181B3
:101940000281138148175907E0F04817590799F4A5
:10195000109761F012960C93129713961C9332967F
:10196000CF01DF91CF911F910F9108950093C8058A
:101970001093C905F4CF2115310551F042175307D3
:1019800038F0A901DB019A01BD01DF01F801C1CFE7
:10199000EF01F9CF9093C9058093C805CDCFFE0123
:1019A000E20FF31F819391932250310939832883E9
:1019B000D7CF2091C6053091C705232B41F4209144
:1019C0000301309104013093C7052093C60520918F
:1019D0000101309102012115310541F42DB73EB7C7
:1019E0004091050150910601241B350BE091C6057D
:1019F000F091C705E217F307A0F42E1B3F0B281741
:101A0000390778F0AC014E5F5F4F2417350748F077
:101A10004E0F5F1F5093C7054093C6058193919366
:101A20009FCFF0E0E0E09CCFCF93DF930097E9F009
:101A3000FC01329713821282A091C805B091C905AA
:101A4000ED0130E020E01097A1F420813181820F78
:101A5000931F2091C6053091C7052817390709F053
:101A600061C0F093C705E093C605DF91CF9108955B
:101A7000EA01CE17DF07E8F54A815B819E01411537
:101A80005105B1F7E901FB83EA8349915991C40FEC
:101A9000D51FEC17FD0761F4808191810296840FB8
:101AA000951FE90199838883828193819B838A832F
:101AB000F0E0E0E012968D919C9113970097B9F5B4
:101AC0002D913C911197CD010296820F931F209189
:101AD000C6053091C7052817390739F6309751F5F3
:101AE0001092C9051092C805B093C705A093C6050A
:101AF000BCCFD383C28340815181840F951FC81707
:101B0000D90761F44E5F5F4F88819981480F591F53
:101B1000518340838A819B81938382832115310580
:101B200009F0B0CFF093C905E093C8059ECFFD0141
:101B3000DC01C0CF13821282D7CFB0E0A0E0E3EA8D
:101B4000FDE00C94F40A8C01009751F4CB010E9443
:101B5000780C8C01C801CDB7DEB7E0E10C94100B16
:101B6000FC01E60FF71F9C0122503109E217F30731
:101B700008F49DC0D901CD91DC911197C617D70704
:101B800098F0C530D10530F3CE010497861797073A
:101B900008F3C61BD70B2297C193D1936D937C9307
:101BA000CF010E94140DD6CF5B01AC1ABD0A4C01C7
:101BB0008C0E9D1EA091C805B091C905512C412CD9
:101BC000F12CE12C109731F58091C6059091C70555
:101BD0008815990509F05CC04616570608F058C0EC
:101BE0008091010190910201009741F48DB79EB759
:101BF0004091050150910601841B950BE817F907E8
:101C000008F055C0F093C705E093C605F90171834C
:101C10006083A0CF8D919C91119712966C90129732
:101C200013967C901397A815B90559F56C0142E0FD
:101C3000C40ED11CCA14DB0420F1AC014A195B09A3
:101C4000DA011296159780F0628273825183408385
:101C5000D9016D937C93E114F10471F0D7011396CF
:101C6000FC93EE93129776CF22968C0F9D1FF9016D
:101C700091838083F301EFCFF093C905E093C8050A
:101C800069CF4816590608F42C017D01D3019ACF7B
:101C9000CB010E94780C7C01009749F0AE01B8019D
:101CA0000E945A0EC8010E94140D870153CF10E004
:101CB00000E050CFFB01DC0102C001900D924150C9
:101CC0005040D8F70895FB01DC018D9101908019F7
:101CD0000110D9F3990B0895FB01DC0101900D92DD
:101CE0000020E1F70895FB01DC014150504048F02D
:101CF00001900D920020C9F701C01D924150504043
:101D0000E0F7089510E0CDE5D0E004C0FE010E94A8
:0E1D10005A0B2196CE35D107C9F7F894FFCFB4
:101D1E00010000CA058000000000002203A601D3C6
:101D2E00016F03E002E20136020D0A006E616E00E1
:101D3E00696E66006F76660032313437343833366A
:101D4E0034380053656C656363696F6E6520656C2E
:101D5E0020656A6572636963696F206120746573BB
:101D6E00746561723A2000312D3A20496E677265B2
:101D7E00736520646F73206E756D65726F207920A8
:101D8E006D756573747265206C612073756D612E4F
:101D9E0000322D3A2050726567756E746172204E56
:101DAE006F6D6272652C204170656C6C69646F2C6E
:101DBE0020446972656363696F6E20792043656C98
:101DCE00756C6172207920636F6D706C65746172D1
:101DDE00206C617320726573707565737461732EF8
:101DEE0000332D3A2053756D6172206E206E756D25
:101DFE0065726F7320696E6772657361646F7320AD
:101E0E00706F72207465726D696E616C20792063DB
:101E1E00616C63756C6172207375206D65646961A8
:101E2E002E00342D3A20506564697220756E20762E
:101E3E00616C6F7220656E7472652030207920326D
:101E4E003535207061726120636F6E74726F6C61D4
:101E5E007220756E2064696F646F206C65642E004D
:101E6E00352D3A20496E67726573617220756E6109
:101E7E002073656375656E63696120646520382023
:101E8E00626974732071756520616374697661721D
:101E9E00616E206C6F73206C6564732064656C20BA
:101EAE0070756572746F20442E00362D3A2072655F
:101EBE006C697A617220756E612066756E63696FEA
:101ECE006E20626F6F6C20636572726164757261F1
:101EDE00287469706F2920636C61766500496E679E
:101EEE007265736520656C207072696D6572206E07
:101EFE00756D65726F3A2000496E67726573652065
:101F0E00656C20736567756E646F206E756D657296
:101F1E006F3A2000456C20726573756C7461646F46
:101F2E00206465206C612073756D612065733A20A5
:101F3E0000506F72206661766F722C206120636F85
:101F4E006E74696E756163696F6E20696E67726516
:101F5E007365206C6F73206461746F7320736F6C84
:101F6E006963697461646F733A20004E6F6D6272BB
:101F7E00653A20004170656C6C69646F3A200044CC
:101F8E006972656363696F6E3A200043656C756CA8
:101F9E0061723A20004D75636861732067726163E8
:101FAE006961732E00506F72206661766F722C20FD
:101FBE00696E6772657365206C612063616E74690A
:101FCE00646164206465206E756D65726F73206147
:101FDE0020696E6772657361723A2000496E67728E
:101FEE0065736520756E206E756D65726F3A200093
:101FFE004C61206D65646961206465206C6F73208F
:10200E0076616C6F72657320696E67726573616459
:10201E006F732065733A2000506F72206661766F81
:10202E00722C20696E677265736520756E206E75F1
:10203E006D65726F20656E74726520302079203266
:10204E003535207061726120636F6E74726F6C61D2
:10205E007220656C206272696C6C6F2064656C20F6
:10206E006C65643A2000496E677265736520756E03
:10207E002076616C6F7220656E74726520302079E7
:10208E00203235352E00446573656120696E6772A6
:10209E0065736172206F74726F2076616C6F723F20
:1020AE0020732F6E00496E677265736520756E61C1
:1020BE002073656375616E636961206465203862A3
:1020CE0069747320656E2062696E6172696F20702B
:1020DE0061726120656E63656E646572206C6F73EC
:1020EE00206C65647320636F72726573706F6E64BB
:1020FE0069656E7465732E004C612073656375653A
:10210E006E63696120696E74726F64756369646170
:10211E002065733A2000436C61766520696E636FAB
:08212E007272656374612E00FA
:00000001FF
