:100000000C945D000C9485000C9485000C94850084
:100010000C9485000C9485000C9485000C9485004C
:100020000C9485000C9485000C9485000C9485003C
:100030000C9485000C9485000C9485000C9485002C
:100040000C9469050C9485000C94D9050C94B305A7
:100050000C9485000C9485000C9485000C9485000C
:100060000C9485000C94850000000008000201003B
:100070000003040700000000000000000000000072
:10008000250028002B0000000000240027002A0083
:10009000040404040404040402020202020203032E
:1000A0000303030301020408102040800102040836
:1000B0001020010204081020720811241FBECFEF87
:1000C000D8E0DEBFCDBF25E0ACE8B4E001C01D92B2
:1000D000A833B207E1F714E0A0E0B1E0E0E9FAE10B
:1000E00002C005900D92AC38B107D9F710E0CDE50C
:1000F000D0E004C02197FE010E94360ACC35D1071A
:10010000C9F70E940B060C94460D0C94000090E079
:10011000FC01EC55FF4F249180579F4FFC018491C7
:10012000882399F090E0880F991FFC01EA57FF4F50
:10013000A591B491FC01E458FF4F859194918FB73C
:10014000F894EC91E22BEC938FBF089590E0FC01C2
:10015000E859FF4F2491FC01EC55FF4F3491FC010D
:10016000E057FF4FE491EE23C9F0222339F023300A
:1001700001F1A8F4213019F1223029F1F0E0EE0F5D
:10018000FF1FE458FF4FA591B4918FB7F894EC91FD
:10019000611126C030953E233C938FBF08952730D0
:1001A000A9F02830C9F0243049F7809180008F7D74
:1001B00003C0809180008F7780938000DFCF84B56B
:1001C0008F7784BDDBCF84B58F7DFBCF8091B0006E
:1001D0008F778093B000D2CF8091B0008F7DF9CF20
:1001E0003E2BDACF1F93CF93DF93182FEB010E94A2
:1001F0008700209739F460E0812FDF91CF911F9124
:100200000C94A600CF3FD10511F461E0F5CFE12FAA
:10021000F0E0E859FF4FE491E33031F140F4E13090
:10022000B1F0E230E1F0C038D1057CF7E4CFE7303F
:1002300029F1E83059F1E430B1F780918000806213
:1002400080938000D0938B00C0938A0004C084B553
:10025000806884BDC7BDDF91CF911F91089584B59B
:10026000806284BDC8BDF7CF809180008068809394
:100270008000D0938900C0938800EDCF8091B000BA
:1002800080688093B000C093B300E5CF8091B00048
:1002900080628093B000C093B400DDCF3FB7F89484
:1002A00080918F0490919004A0919104B091920458
:1002B00026B5A89B05C02F3F19F00196A11DB11DC1
:1002C0003FBFBA2FA92F982F8827BC01CD01620FFD
:1002D000711D811D911D42E0660F771F881F991FB8
:1002E0004A95D1F70895AF92BF92CF92DF92EF92E5
:1002F000FF920F931F93CF93DF936C017B018B01D0
:10030000040F151FEB015E01AE18BF08C017D1071F
:1003100059F06991D601ED91FC910190F081E02DA9
:10032000C6010995892B79F7C501DF91CF911F91FE
:100330000F91FF90EF90DF90CF90BF90AF90089516
:10034000FC01538D448D252F30E0842F90E0821BDB
:10035000930B541710F0CF96089501970895FC0160
:10036000918D828D981761F0A28DAE0FBF2FB11DB8
:100370005D968C91928D9F5F9F73928F90E0089510
:100380008FEF9FEF08952FB7F89480919304909189
:100390009404A0919504B09196042FBF80939F047C
:1003A0009093A004A093A104B093A20487E994E0E1
:1003B0000E94AF0197FF26C02FB7F8948091930455
:1003C00090919404A0919504B09196042FBF409110
:1003D0009F045091A0046091A1047091A204841B19
:1003E000950BA60BB70B40919B0450919C04609118
:1003F0009D0470919E0484179507A607B707B0F275
:100400008FEF9FEF0895FC01918D828D981731F049
:10041000828DE80FF11D858D90E008958FEF9FEF9D
:1004200008952FB7F8948091930490919404A0912B
:100430009504B09196042FBF80939F049093A004DD
:10044000A093A104B093A20487E994E00E94030260
:1004500097FF26C02FB7F89480919304909194044D
:10046000A0919504B09196042FBF40919F045091A4
:10047000A0046091A1047091A204841B950BA60BAB
:10048000B70B40919B0450919C0460919D04709126
:100490009E0484179507A607B707B0F28FEF9FEF6A
:1004A0000895CF92DF92EF92FF92CF930E941102B4
:1004B000FC0197FD4EC08D32910521F0C0970A973F
:1004C00008F040C0C12CD12C7601C0E0E130F1052C
:1004D000D1F0ED32F105D9F1CF01C0970A9798F428
:1004E000AAE0B0E0A70196010E94C3096F01FF0FC7
:1004F000EE08FF08C60ED71EE81EF91E80E3C81AD4
:10050000D108E108F10887E994E00E94AF010E9458
:100510001102FC01C0970A97C8F2E130F105B1F26F
:10052000CC2341F0F094E094D094C094C11CD11C31
:10053000E11CF11CC701B601CF91FF90EF90DF9055
:10054000CF90089587E994E00E94AF01AFCFC1E05A
:10055000DACFC12CD12C7601EDCFFC01918D228D0B
:10056000892F90E0805C9F4F821B91098F739927A0
:10057000089587E994E00E94AD0221E0892B09F4F7
:1005800020E0822F089580E090E0892B29F00E94DE
:10059000B90281110C9400000895FC01A48DA80FEC
:1005A000B92FB11DA35ABF4F2C91848D90E00196B5
:1005B0008F739927848FA689B7892C93A089B189D5
:1005C0008C91837080648C93938D848D981306C076
:1005D0000288F389E02D80818F7D80830895EF92DA
:1005E000FF920F931F93CF93DF93EC0181E0888FED
:1005F0009B8D8C8D98131AC0E889F989808185FFBD
:1006000015C09FB7F894EE89FF896083E889F9895E
:1006100080818370806480839FBF81E090E0DF9160
:10062000CF911F910F91FF90EF900895F62E0B8DB3
:1006300010E00F5F1F4F0F731127E02E8C8D8E116E
:100640000CC00FB607FCFACFE889F989808185FFD5
:10065000F5CFCE010E94CD02F1CFEB8DEC0FFD2F37
:10066000F11DE35AFF4FF0829FB7F8940B8FEA8990
:10067000FB8980818062CFCFCF93DF93EC01888D9F
:100680008823B9F0AA89BB89E889F9898C9185FD0D
:1006900003C0808186FD0DC00FB607FCF7CF8C919B
:1006A00085FFF2CF808185FFEDCFCE010E94CD0284
:1006B000E9CFDF91CF910895FC0101900020E9F787
:1006C0003197AF01481B590BBC0187E994E00C94AA
:1006D000730189E191E00C945C03CF93DF93FC01FB
:1006E000448155816081718187E994E00E947301A2
:1006F000EC010E9469038C0F9D1FDF91CF9108953B
:100700008F929F92AF92BF920F931F93CF93DF93DD
:10071000CDB7DEB7A1970FB6F894DEBF0FBECDBF41
:1007200019A2423008F44AE08E010F5D1F4F842E5B
:10073000912CB12CA12CA50194010E94140AE62F42
:10074000B901CA01EA30F4F4E05DD801EE938D01FD
:10075000232B242B252B79F790E080E0109719F0BC
:10076000CD010E945C03A1960FB6F894DEBF0FBEC8
:10077000CDBFDF91CF911F910F91BF90AF909F9010
:100780008F900895E95CE1CF0C945C03CF93DF93E5
:100790000E945C03EC010E9469038C0F9D1FDF9196
:1007A000CF910895CF92DF92EF92FF92CF93DF9394
:1007B0006C01990FEE08FF08F7FE1DC06DE287E996
:1007C00094E00E94EF02EC0166277727CB016C19B9
:1007D0007D098E099F094AE00E948003C80FD91F36
:1007E0000E9469038C0F9D1FDF91CF91FF90EF90C6
:1007F000DF90CF9008954AE0C701B6010E948003C0
:10080000EC01EECF4F925F926F927F928F929F9208
:10081000AF92BF92CF92DF92EF92FF920F931F930E
:10082000CF936B017C01742EAC019B010E944F0B96
:10083000882399F08CE191E0CF911F910F91FF9067
:10084000EF90DF90CF90BF90AF909F908F907F9070
:100850006F905F904F900C945C0346015701E894B1
:10086000B7F82FEF3FEF4FE75FE7C501B4010E94F4
:100870004F0B81110DC02FEF3FEF4FE75FE7C50131
:10088000B4010E949F0818161CF480E291E0D4CFB6
:100890002FEF3FEF4FE75FE4C701B6010E944A0B1D
:1008A00018161CF484E291E0C7CF2FEF3FEF4FE71B
:1008B0005FECC701B6010E949F0887FDF3CF20E0DF
:1008C00030E0A901C701B6010E949F0810E000E0D6
:1008D00087FF0AC06DE287E994E00E94EF028C0175
:1008E000F7FAF094F7F8F094C0E060E070E080E090
:1008F0009FE37C1641F020E030E040E251E40E94AA
:10090000A90ACF5FF6CFA70196010E943D0A2B01ED
:100910003C010E941B0B4B015C014AE00E948003DA
:100920007C01E00EF11ECC23C1F1C501B4010E948F
:10093000A4089B01AC01C301B2010E943C0A4B0117
:100940005C016EE287E994E00E94EF02E80EF91E76
:10095000C15018F120E030E040E251E4C501B4019B
:100960000E9405092B013C010E941B0B4B01B12C7D
:10097000A12C4AE0C501B4010E948003E80EF91ED3
:10098000C501B4010E94A4089B01AC01C301B201DE
:100990000E943C0A4B015C01DBCFC701CF911F9144
:1009A0000F91FF90EF90DF90CF90BF90AF909F900E
:1009B0008F907F906F905F904F900895FC018081A1
:1009C0009181009711F00C94F00B08950F931F93F1
:1009D000CF93DF93EC0188819981009759F02A81A8
:1009E0003B812617370730F081E0DF91CF911F91CF
:1009F0000F9108958B016F5F7F4F0E94790C0097D4
:100A000059F0998388831B830A832C813D81232B92
:100A100059F7FC011082E8CF80E0E7CFEF92FF9218
:100A20000F931F93CF93DF9300D0CDB7DEB78C0128
:100A3000FC0111821082138212821582148270E0EE
:100A400060E00E94E604F8012081318181112FC00D
:100A50002115310519F0C9010E94F00BF80111822E
:100A6000108215821482138212820E94C30197FDA4
:100A700026C089831A82F801E480F580FFEFEF1A1F
:100A8000FF0AB701C8010E94E604882371F3F80148
:100A90002081318184819581BE016F5F7F4F820FFC
:100AA000931F0E943F0DF801F582E482DECF15828C
:100AB00014826BE171E0C9010E943F0DD6CFC801DD
:100AC0000F900F90DF91CF911F910F91FF90EF90BA
:100AD00008951F920F920FB60F9211242F933F93F8
:100AE0008F939F93AF93BF938091930490919404BD
:100AF000A0919504B091960430918E0423E0230FC9
:100B00002D3758F50196A11DB11D20938E048093B9
:100B1000930490939404A0939504B09396048091C9
:100B20008F0490919004A0919104B0919204019649
:100B3000A11DB11D80938F0490939004A093910404
:100B4000B0939204BF91AF919F918F913F912F915C
:100B50000F900FBE0F901F90189526E8230F029656
:100B6000A11DB11DD2CF1F920F920FB60F9211246B
:100B70002F933F934F935F936F937F938F939F93A5
:100B8000AF93BF93EF93FF9387E994E00E94CD0268
:100B9000FF91EF91BF91AF919F918F917F916F9155
:100BA0005F914F913F912F910F900FBE0F901F902B
:100BB00018951F920F920FB60F9211242F938F93B7
:100BC0009F93EF93FF93E091A704F091A804808195
:100BD000E091AD04F091AE0482FD1BC09081809144
:100BE000B0048F5F8F732091B104821741F0E091C0
:100BF000B004F0E0E956FB4F958F8093B004FF916D
:100C0000EF919F918F912F910F900FBE0F901F909A
:100C100018958081F4CFCF93DF93CDB7DEB7689777
:100C20000FB6F894DEBF0FBECDBF789484B5826056
:100C300084BD84B5816084BD85B5826085BD85B580
:100C4000816085BD80916E00816080936E001092FE
:100C50008100809181008260809381008091810079
:100C6000816080938100809180008160809380000A
:100C70008091B10084608093B1008091B000816068
:100C80008093B00080917A00846080937A00809194
:100C90007A00826080937A0080917A0081608093EC
:100CA0007A0080917A00806880937A001092C10067
:100CB000E091A704F091A80482E08083E091A3046E
:100CC000F091A4041082E091A504F091A6048FECA9
:100CD00080831092AF04E091AB04F091AC0486E005
:100CE0008083E091A904F091AA04808180618083CF
:100CF000E091A904F091AA04808188608083E0914A
:100D0000A904F091AA04808180688083E091A904FD
:100D1000F091AA0480818F7D80838BE00E94870000
:100D200080910001882379F188E291E00E94C60356
:100D30008CE491E00E94C60386E791E00E94C6031E
:100D400086EC91E00E94C60387E092E00E94C60311
:100D500085E492E00E94C6038FE892E00E94C603F9
:100D60001092000187E994E00E94AD02892BD1F333
:100D70000E9451026230710509F49DC07CF461301B
:100D8000710509F444C020E030E0232B49F20E94B1
:100D9000B902882329F20E940000C2CF6330710596
:100DA00009F4ECC06430710571F70E9469038EEF9D
:100DB00093E00E94C40387E994E00E94AD02892B6E
:100DC000D1F30E94510270938D0460938C04CB0187
:100DD0000E94D20360918C0470918D046F33710571
:100DE00008F057C18BE00E94F2008CE694E00E946C
:100DF000C60387E994E00E94AD02892BD1F387E90D
:100E000094E00E94AF018337910579F2BCCF82EC68
:100E100092E00E94C40387E994E00E94AD02892B0E
:100E2000D1F30E9451024B01CB010E94D2038DED00
:100E300092E00E94C40387E994E00E94AD02892BEE
:100E4000D1F30E9451026B01CB010E94D203C80C66
:100E5000D91C89EF92E00E94C403C6010E94D2030C
:100E600021E0209300010E9469030E944E014B0182
:100E70005C0138EEC32E33E0D32EE12CF12C0E941E
:100E80004E01681979098A099B09683E73408105FA
:100E90009105A8F331E0C31AD108E108F10888EE02
:100EA000880E83E0981EA11CB11CC114D104E1047A
:100EB000F10429F768CF86E193E00E94C60381E53B
:100EC00093E00E94C40387E994E00E94AD02892B5D
:100ED000D1F3CE0143960E940E05CE0143960E94A7
:100EE0006D038AE593E00E94C40387E994E00E94C1
:100EF000AD02892BD1F3CE010D960E940E05CE01D5
:100F00000D960E946D0385E693E00E94C40387E975
:100F100094E00E94AD02892BD1F3CE0107960E9486
:100F20000E05CE0107960E946D0381E793E00E94B3
:100F3000C40387E994E00E94AD02892BD1F3CE016E
:100F400001960E940E05CE0101960E946D038BE76B
:100F500093E00E94C6030E946903CE0101960E949D
:100F6000DE04CE0107960E94DE04CE010D960E949B
:100F7000DE04CE0143960E94DE0405CF2DB63EB6B8
:100F80000E9469038BE893E00E94C40387E994E020
:100F90000E94AD02892BD1F30E9451022B016B01FB
:100FA000CB01880F991F880F991F2DB73EB7281BBB
:100FB000390B0FB6F8943EBF0FBE2DBF0DB71EB74D
:100FC0000F5F1F4FC2010E94D20387E994E00E9485
:100FD0003C035801F12CE12CEC14FD040CF582ECDF
:100FE00093E00E94C40387E994E00E94AD02892B3C
:100FF000D1F30E9451020E94A608F50161937193FA
:10100000819391935F0142E00E9402040E94690370
:1010100087E994E00E943C03FFEFEF1AFF0ADCCF60
:10102000F12CE12C812C912C5401EC14FD0484F45E
:10103000F80121913191419151918F01C501B40184
:101040000E943D0A4B015C01FFEFEF1AFF0AEDCF52
:10105000B201550C880B990B0E94A6089B01AC01AC
:10106000C501B4010E94A90A6B017C010E946903B9
:1010700086ED93E00E94C40342E0C701B6010E94DE
:1010800002040E9469030FB6F8943EBE0FBE2DBE47
:101090007ACECB01805491090C9708F4A3CECB01F2
:1010A0008D549109C29708F49DCECB0180589109C7
:1010B000C29708F497CECB01835B91090C9708F493
:1010C00091CECB01805C9109859708F48BCECB0142
:1010D000865E91094A9708F485CE8CE494E00E94DC
:1010E000C60383CEE7E9F4E01382128288EE93E030
:1010F000A0E0B0E084839583A683B7838BE091E082
:101100009183808385EC90E09587848784EC90E0E0
:101110009787868780EC90E0918B808B81EC90E0C4
:10112000938B828B82EC90E0958B848B86EC90E0A5
:10113000978B868B118E128E138E148E08950E94BB
:10114000E10808F481E00895E89409C097FB3EF4B3
:1011500090958095709561957F4F8F4F9F4F992304
:10116000A9F0F92F96E9BB279395F6958795779582
:101170006795B795F111F8CFFAF4BB0F11F460FF42
:101180001BC06F5F7F4F8F4F9F4F16C0882311F09A
:1011900096E911C0772321F09EE8872F762F05C0AE
:1011A000662371F096E8862F70E060E02AF09A9549
:1011B000660F771F881FDAF7880F9695879597F93E
:1011C0000895990F0008550FAA0BE0E8FEEF1616D8
:1011D0001706E807F907C0F012161306E407F5072B
:1011E00098F0621B730B840B950B39F40A2661F09F
:1011F000232B242B252B21F408950A2609F4A14042
:10120000A6958FEF811D811D08950E9418090C94E9
:1012100089090E947B0938F00E94820920F09523F9
:1012200011F00C9472090C94780911240C94BD09E6
:101230000E949A0970F3959FC1F3950F50E0551FD6
:10124000629FF001729FBB27F00DB11D639FAA271B
:10125000F00DB11DAA1F649F6627B00DA11D661F6A
:10126000829F2227B00DA11D621F739FB00DA11D8B
:10127000621F839FA00D611D221F749F3327A00D45
:10128000611D231F849F600D211D822F762F6A2FE1
:1012900011249F5750409AF0F1F088234AF0EE0F46
:1012A000FF1FBB1F661F771F881F91505040A9F773
:1012B0009E3F510580F00C9472090C94BD095F3F6C
:1012C000E4F3983ED4F3869577956795B795F795AF
:1012D000E7959F5FC1F7FE2B880F911D9695879527
:1012E00097F9089597F99F6780E870E060E00895A6
:1012F0009FEF80EC089500240A941616170618062E
:101300000906089500240A94121613061406050609
:101310000895092E0394000C11F4882352F0BB0F9A
:1013200040F4BF2B11F460FF04C06F5F7F4F8F4FFD
:101330009F4F089557FD9058440F551F59F05F3F38
:1013400071F04795880F97FB991F61F09F3F79F0E7
:1013500087950895121613061406551FF2CF469569
:10136000F1DF08C0161617061806991FF1CF8695EB
:101370007105610508940895E894BB2766277727CF
:10138000CB0197F908950E94050AA59F900DB49F7F
:10139000900DA49F800D911D112408952F923F92CE
:1013A0004F925F926F927F928F929F92AF92BF9275
:1013B000CF92DF92EF92FF920F931F93CF93DF9321
:1013C000CDB7DEB7CA1BDB0B0FB6F894DEBF0FBE7E
:1013D000CDBF09942A88398848885F846E847D84CB
:1013E0008C849B84AA84B984C884DF80EE80FD80CD
:1013F0000C811B81AA81B981CE0FD11D0FB6F89443
:10140000DEBF0FBECDBFED010895A29FB001B39F17
:10141000C001A39F700D811D1124911DB29F700DFD
:10142000811D1124911D0895A1E21A2EAA1BBB1B38
:10143000FD010DC0AA1FBB1FEE1FFF1FA217B307A0
:10144000E407F50720F0A21BB30BE40BF50B661FB6
:10145000771F881F991F1A9469F76095709580957A
:1014600090959B01AC01BD01CF010895EE0FFF1FC8
:101470000590F491E02D09945058BB27AA270E94AB
:10148000540A0C9489090E947B0938F00E94820951
:1014900020F039F49F3F19F426F40C9478090EF4E7
:1014A000E095E7FB0C947209E92F0E949A0958F322
:1014B000BA17620773078407950720F079F4A6F539
:1014C0000C94BC090EF4E0950B2EBA2FA02D0B0145
:1014D000B90190010C01CA01A0011124FF27591B79
:1014E00099F0593F50F4503E68F11A16F040A22F7F
:1014F000232F342F4427585FF3CF469537952795F0
:10150000A795F0405395C9F77EF41F16BA0B620BEE
:10151000730B840BBAF09150A1F0FF0FBB1F661F35
:10152000771F881FC2F70EC0BA0F621F731F841F78
:1015300048F4879577956795B795F7959E3F08F09E
:10154000B0CF9395880F08F09927EE0F9795879560
:1015500008950E94BD0A0C9489090E94820958F0DE
:101560000E947B0940F029F45F3F29F00C94720936
:1015700051110C94BD090C9478090E949A0968F3E2
:101580009923B1F3552391F3951B550BBB27AA273C
:1015900062177307840738F09F5F5F4F220F331F76
:1015A000441FAA1FA9F335D00E2E3AF0E0E832D03E
:1015B00091505040E695001CCAF72BD0FE2F29D041
:1015C000660F771F881FBB1F261737074807AB0713
:1015D000B0E809F0BB0B802DBF01FF2793585F4F88
:1015E0003AF09E3F510578F00C9472090C94BD09B5
:1015F0005F3FE4F3983ED4F3869577956795B7956A
:10160000F7959F5FC9F7880F911D9695879597F974
:101610000895E1E0660F771F881FBB1F62177307ED
:101620008407BA0720F0621B730B840BBA0BEE1F02
:1016300088F7E09508950E94A20988F09F5798F0D6
:10164000B92F9927B751B0F0E1F0660F771F881FC7
:10165000991F1AF0BA95C9F714C0B13091F00E94E1
:10166000BC09B1E008950C94BC09672F782F882736
:10167000B85F39F0B93FCCF3869577956795B39508
:10168000D9F73EF490958095709561957F4F8F4F77
:101690009F4F08950E94E10808F48FEF08950E947B
:1016A000E108880B990B08950F931F93CF93DF9355
:1016B0008230910510F482E090E0E0913605F091DF
:1016C000370530E020E0B0E0A0E0309799F4211534
:1016D000310509F44AC0281B390B24303105D8F5EF
:1016E0008A819B816115710589F1FB019383828356
:1016F000FE0111C0408151810281138148175907B1
:10170000E0F04817590799F4109761F012960C937E
:10171000129713961C933296CF01DF91CF911F91B0
:101720000F9108950093360510933705F4CF2115D6
:10173000310551F04217530738F0A901DB019A0136
:10174000BD01DF01F801C1CFEF01F9CF909337055B
:1017500080933605CDCFFE01E20FF31F8193919365
:101760002250310939832883D7CF20913405309115
:101770003505232B41F4209103013091040130936E
:101780003505209334052091010130910201211586
:10179000310541F42DB73EB7409105015091060146
:1017A000241B350BE0913405F0913505E217F30762
:1017B000A0F42E1B3F0B2817390778F0AC014E5FC1
:1017C0005F4F2417350748F04E0F5F1F50933505C4
:1017D00040933405819391939FCFF0E0E0E09CCF5C
:1017E000CF93DF930097E9F0FC01329713821282C6
:1017F000A0913605B0913705ED0130E020E010975B
:10180000A1F420813181820F931F20913405309102
:1018100035052817390709F061C0F0933505E093C5
:101820003405DF91CF910895EA01CE17DF07E8F57F
:101830004A815B819E0141155105B1F7E901FB83A6
:10184000EA8349915991C40FD51FEC17FD0761F444
:10185000808191810296840F951FE9019983888385
:10186000828193819B838A83F0E0E0E012968D91E0
:101870009C9113970097B9F52D913C911197CD014B
:101880000296820F931F2091340530913505281759
:10189000390739F6309751F5109237051092360511
:1018A000B0933505A0933405BCCFD383C283408168
:1018B0005181840F951FC817D90761F44E5F5F4FA0
:1018C00088819981480F591F518340838A819B8168
:1018D000938382832115310509F0B0CFF09337054A
:1018E000E09336059ECFFD01DC01C0CF138212824A
:1018F000D7CFB0E0A0E0EFE7FCE00C94D0098C017A
:10190000009751F4CB010E94540B8C01C801CDB754
:10191000DEB7E0E10C94EC09FC01E60FF71F9C0137
:1019200022503109E217F30708F49DC0D901CD9187
:10193000DC911197C617D70798F0C530D10530F361
:10194000CE0104978617970708F3C61BD70B22977B
:10195000C193D1936D937C93CF010E94F00BD6CFAE
:101960005B01AC1ABD0A4C018C0E9D1EA091360580
:10197000B0913705512C412CF12CE12C109731F509
:1019800080913405909135058815990509F05CC062
:101990004616570608F058C0809101019091020147
:1019A000009741F48DB79EB7409105015091060113
:1019B000841B950BE817F90708F055C0F09335051F
:1019C000E0933405F90171836083A0CF8D919C91E0
:1019D000119712966C90129713967C901397A815F6
:1019E000B90559F56C0142E0C40ED11CCA14DB04E0
:1019F00020F1AC014A195B09DA011296159780F0C3
:101A00006282738251834083D9016D937C93E11488
:101A1000F10471F0D7011396FC93EE93129776CFF1
:101A200022968C0F9D1FF90191838083F301EFCFE4
:101A3000F0933705E093360569CF4816590608F448
:101A40002C017D01D3019ACFCB010E94540B7C0164
:101A5000009749F0AE01B8010E94360DC8010E94FE
:101A6000F00B870153CF10E000E050CFFB01DC0109
:101A700002C001900D9241505040D8F70895FB01EB
:101A8000DC0101900D920020E1F70895F894FFCF5A
:101A90000100003805800000000000EF027301A083
:101AA000013C03AD02AF0103020D0A006E616E003E
:101AB000696E66006F76660053656C656363696F77
:101AC0006E6520656C20656A6572636963696F2065
:101AD0006120746573746561723A2000312D3A207B
:101AE000496E677265736520646F73206E756D65EE
:101AF000726F2079206D756573747265206C61203A
:101B000073756D612E00322D3A2050726567756EC7
:101B1000746172204E6F6D6272652C204170656C2D
:101B20006C69646F2C20446972656363696F6E2011
:101B3000792043656C756C6172207920636F6D70DC
:101B40006C65746172206C61732072657370756569
:101B5000737461732E00332D3A2053756D617220BA
:101B60006E206E756D65726F7320696E6772657336
:101B700061646F7320706F72207465726D696E613D
:101B80006C20792063616C63756C617220737520C1
:101B90006D656469612E00342D3A20506564697268
:101BA00020756E2076616C6F7220656E7472652090
:101BB00030207920323535207061726120636F6E7C
:101BC00074726F6C617220756E2064696F646F202F
:101BD0006C65642E00352D3A20496E67726573611D
:101BE0007220756E612073656375656E636961202F
:101BF00064652038206269747320717565206163A3
:101C00007469766172616E206C6F73206C656473A9
:101C10002064656C2070756572746F20442E0036E8
:101C20002D3A2072656C697A617220756E6120664A
:101C3000756E63696F6E20626F6F6C206365727280
:101C40006164757261287469706F2920636C6176B4
:101C50006500496E677265736520656C20707269F6
:101C60006D6572206E756D65726F3A2000496E6702
:101C70007265736520656C20736567756E646F208F
:101C80006E756D65726F3A2000456C2072657375D4
:101C90006C7461646F206465206C612073756D6184
:101CA0002065733A2000506F72206661766F722C47
:101CB000206120636F6E74696E75616369C3B36E72
:101CC00020696E6772657365206C6F732064617440
:101CD0006F7320736F6C6963697461646F733A200A
:101CE000004E6F6D6272653A20004170656C6C69E0
:101CF000646F3A2000446972656363696F6E3A20CD
:101D00000043656C756C61723A20004D75636861C3
:101D10007320677261636961732E00506F72206671
:101D200061766F722C20696E6772657365206C61D5
:101D30002063616E7469646164206465206E756DF2
:101D400065726F73206120696E6772657361723AA4
:101D50002000496E677265736520756E206E756D23
:101D600065726F3A20004C61206D65646961206482
:101D700065206C6F732076616C6F72657320696E7D
:101D80006772657361646F732065733A2000506FEA
:101D900072206661766F722C20696E67726573655A
:101DA00020756E206E756D65726F20656E7472653C
:101DB0002030207920323535207061726120636FC8
:101DC0006E74726F6C617220656C206272696C6CEB
:101DD0006F2064656C206C65643A2000496E677200
:101DE00065736520756E2076616C6F7220656E7408
:101DF000726520302079203235352E0044657365B8
:101E00006120696E677265736172206F74726F20F2
:0C1E100076616C6F723F20732F6E000033
:00000001FF
